:1000000012C02CC02BC02AC029C028C027C026C0BF
:1000100025C024C023C022C040C820C01FC01EC0AD
:100020001DC01CC01BC011241FBECFE5D2E0DEBF27
:10003000CDBF10E0A0E6B0E0EAEFF6E102C0059027
:100040000D92A836B107D9F720E0A8E6B0E001C0CC
:100050001D92A63EB207E1F766D84DCBD1CF81E025
:1000600081BBD89ADA9AD29AD09A8FEF8FB98AE266
:100070008DB980EF8EB91092700008958091700054
:100080000895DA9ADA9BFECF8AE68A95F1F700C0E6
:10009000D89885E58A95F1F70000DA98D89A81E03A
:1000A00008958EB98BE29AE69A95F1F700C08DB962
:1000B000CA9BFECF95E59A95F1F700008DB9769B26
:1000C000F2CF8AE68A95F1F700C08FB19FEF9FB912
:1000D000D09A0895D898DA9ACA9BFECF85E58A957A
:1000E000F1F70000D89A8AE68A95F1F700C081E01E
:1000F00008950F931F93CF93DF93EC01162F81E0A8
:1001000080937000888180FD03C083E0809370003D
:10011000B8DF8823C9F00FEF809170008370B1F1D0
:10012000DA9888818FB980EFBCDFD0988EEFB9DF85
:1001300080FF13C090917000892F817090FF09C0DB
:1001400086E08093700080E0DF91CF911F910F9146
:10015000089595E090937000F7CF809170008E7FA6
:1001600080937000115021961111D6CFB3DF80918A
:10017000700081FF17C080916A0090916B0001961A
:1001800090936B0080936A0081E0DECFD09880EF7F
:1001900088DF8883113021F40FB98EEF82DFE2CF40
:1001A0001FB8FBCF809168009091690001969093F1
:1001B000690080936800E8CFFC01415008F408957D
:1001C0006193FBCFCF93DF93CDB7DEB7C054D10996
:1001D0000FB6F894DEBF0FBECDBF880F89836A8348
:1001E0004B8363E0CE01019684DF81110AC0209128
:1001F0006E0030916F002F5F3F4F30936F00209360
:100200006E00C05CDF4F0FB6F894DEBF0FBECDBFEF
:10021000DF91CF910895DF92EF92FF920F931F939A
:10022000CF93DF93CDB7DEB7C054D1090FB6F894A2
:10023000DEBF0FBECDBF182FD62E042FF22EE32E19
:1002400040E470E060E0CE010196B6DF812F880FB8
:100250008983DA8262E0CE0101964BDF811119C0F9
:1002600020916E0030916F002F5F3F4F30936F00F1
:1002700020936E00C05CDF4F0FB6F894DEBF0FBE58
:10028000CDBFDF91CF911F910F91FF90EF90DF9045
:10029000089585E58A95F1F7000040E470E060E09C
:1002A000CE01019689DF110F1160198311E0100F43
:1002B000612FCE0101961DDF909170009630C1F341
:1002C00081110AC020916C0030916D002F5F3F4F6B
:1002D00030936D0020936C00DE0112962F2DEF2DD0
:1002E000FE2D9E2F921B901728F69D919193F9CF8A
:1002F00080916E00089580916C00089580916A004D
:10030000089580916800089510926F0010926E0019
:1003100010926B0010926A0010926D0010926C00A7
:100320001092690010926800089595E19A95F1F78E
:1003300000008FB980E48EB98BE1769B02C08FB14B
:1003400008958DB9FACF0F931F93CF93DF9325E1D3
:100350002A95F1F70000EC018C01060F111DC01762
:10036000D10729F4DF91CF911F910F9108958991C1
:10037000DCDFF5CF0F931F93CF93DF9325E12A9511
:10038000F1F70000EC018C01060F111DC017D10719
:1003900029F4DF91CF911F910F91089580E0C5DF7F
:1003A0008993F4CF11BABA9AB99AB898C09A0895B5
:1003B00087B3806387BBC498C59A0895C59882EEB9
:1003C000B4DFC59AC59881EEB0DFC59A0895C59887
:1003D00087E0ABDF8FEFA9DFC59A0895C59887E066
:1003E000A4DF8FEFA2DFC59A80740895C59887E0D7
:1003F0009CDF8FEF9ADFC59A80710895CF93C62F47
:10040000C5988F71806291DF8C2F8FDFC59ACF9155
:100410000895C4986CE780E0F1CF1F93CF93DF93EA
:10042000EC01162FC59881E680DF612FCE01A2DF97
:10043000C59A60E487E0DF91CF911F91DFCF1F93D2
:10044000CF93DF93EB01142FC5988F716EDF612F6F
:10045000CE0190DFC59ADF91CF911F9108951F9330
:10046000CF93DF93EB01142FC5988F7180625DDF0E
:10047000612FCE0168DFC59ADF91CF911F9108955A
:100480000F931F93CF93DF938C01EB01642F85E0D3
:10049000B5DF60E08CE1B2DF61E08DE1AFDF60E00D
:1004A00081E0ACDF60E084E0A9DF66E286E0A6DF01
:1004B00045E0B80180E1D3DF45E0BE018AE0CFDF4F
:1004C000109271006EE780E0DF91CF911F910F9144
:1004D00095CF1F93CF93DF93EC01162F10927100ED
:1004E0006EE780E08BDFC59881EE1FDFC59AC59867
:1004F00080EB1BDF612FCE0126DFC59AC49A88E20C
:100500008A95F1F7C498DF91CF911F9108959B01CF
:10051000682F86E780CE462F682F86E753CECF938D
:10052000DF9348E162E770E088E8F1DF41E06AE8E4
:1005300070E081EAECDF47E06BE870E081EEE7DF36
:100540008091720090917300092E000CAA0BBB0BD6
:100550008093C2009093C300A093C400B093C500E1
:100560002091740030917500A901032E000C660BD8
:10057000770B4093C6005093C7006093C8007093F8
:10058000C9008091760090917700092E000CAA0B8B
:10059000BB0B8093CA009093CB00A093CC00B09388
:1005A000CD008091780090917900B0E0A0E0809338
:1005B000920090939300A0939400B0939500809143
:1005C0007A0090917B00B0E0A0E080939600909339
:1005D0009700A0939800B093990080917C0090912F
:1005E0007D00B0E0A0E080939A0090939B00A093E0
:1005F0009C00B0939D0080917E0090917F00B0E0C0
:10060000A0E080939E0090939F00A093A000B093E1
:10061000A1008091800090918100B0E0A0E08093E3
:10062000A2009093A300A093A400B093A500809192
:10063000820090918300B0E0A0E08093A6009093A8
:10064000A700A093A800B093A90080918400909186
:100650008500B0E0A0E08093AA009093AB00A09347
:10066000AC00B093AD008091860090918700B0E01F
:10067000A0E08093AE009093AF00A093B000B09341
:10068000B1008091880090918900B0E0A0E0809353
:10069000B2009093B300A093B400B093B5008091E2
:1006A0008A0090E0B0E0A0E08093CE009093CF006D
:1006B000A093D000B093D10080918B0090918C00DA
:1006C000092E000CAA0BBB0B8093D2009093D30091
:1006D000A093D400B093D50080918D0090E0B0E05D
:1006E000A0E08093D6009093D700A093D800B09359
:1006F000D900E0918F0080918E0090E0F4E0880FA7
:10070000991FFA95E1F7FE2FFF708F2B092E000C31
:10071000AA0BBB0B8093DA009093DB00A093DC0064
:10072000B093DD008091900090E0A4E0880F991FC5
:10073000AA95E1F7E295EF708E2B092E000CAA0B1B
:10074000BB0B8093DE009093DF00A093E000B0939A
:10075000E1008091910090E0B0E0A0E08093E200A1
:100760009093E300A093E400B093E50037FF15C039
:1007700070956095509541955F4F6F4F7F4F4095B5
:1007800050954F5F5F4F6F4F7F4F4093C600509320
:10079000C7006093C8007093C900E2E9F0E084816B
:1007A0009581A681B78197FF10C0B095A0959095CF
:1007B00081959F4FAF4FBF4F809590950196A11D9A
:1007C000B11D84839583A683B783349680E0EE3A87
:1007D000F80729F7EEECF0E081919191A191B191A8
:1007E00097FF12C0EF012497B095A0959095819541
:1007F0009F4FAF4FBF4F809590950196A11DB11DA2
:1008000088839983AA83BB8380E0E63EF80721F7BB
:1008100080E0DF91CF91089580E908954F925F9233
:100820006F927F928F929F92AF92BF92CF92DF9200
:10083000EF92FF92CF93DF9300D000D0CDB7DEB719
:100840002B013C01E2ECF0E06081718182819381B7
:100850002BD64B015C0120E030E040E057E3C301C0
:10086000B201D6D66B017C0120E030E040E059E3D4
:10087000C501B401CDD669837A838B839C8320E044
:1008800030E040E858E3C301B201C2D62B013C017D
:1008900020E030E040E85AE3C501B401B9D69B013D
:1008A000AC01C301B201FCD44B015C016091C600F4
:1008B0007091C7008091C8009091C900F5D59B0147
:1008C000AC01C501B401A4D64B015C016091CA0022
:1008D0007091CB008091CC009091CD00E5D529811D
:1008E0003A814B815C8194D69B01AC01C701B60172
:1008F000D7D42B013C0129813A814B815C81C7010E
:10090000B601CED49B01AC01C301B20181D69B01DB
:10091000AC01C501B401C5D46093BE007093BF00A3
:100920008093C0009093C10020E030E040EA55E49D
:1009300020D50F900F900F900F90DF91CF91FF90E7
:10094000EF90DF90CF90BF90AF909F908F907F906F
:100950006F905F904F9008954F925F926F927F9249
:100960008F929F92AF92BF92CF92DF92EF92FF92BF
:10097000CF93DF93CDB7DEB728970FB6F894DEBFDD
:100980000FBECDBF6D837E838F83988720E030E0DC
:1009900040E05FE36091BE007091BF008091C000B5
:1009A0009091C10035D620E030E04AE757E478D492
:1009B00069837A838B839C8320E030E040E85EE3A8
:1009C00027D69B01AC0124D64B015C0160919A00B3
:1009D00070919B0080919C0090919D0065D56B016A
:1009E0007C0120E030E040E059E3C501B40110D6BD
:1009F0009B01AC01C701B6010BD620E030E040E01E
:100A00005EE306D66B017C016091960070919700C1
:100A1000809198009091990047D529813A814B8126
:100A20005C81F6D520E030E040E05FE3F1D59B014A
:100A3000AC01C701B60135D42B013C016091920095
:100A40007091930080919400909195002DD56B0149
:100A50007C0120E030E040E856E3C301B201D8D584
:100A600020E030E040E057E41CD49B01AC01C7011A
:100A7000B601CED520E030E040E058E3C9D56B01A7
:100A80007C0120E030E0A90170D4882309F4F6C08D
:100A90006091A6007091A7008091A8009091A90094
:100AA00003D52B013C0120E030E040E05AE3C501D2
:100AB000B401AED59B01AC01C301B201A9D54B0174
:100AC0005C016091A2007091A3008091A4009091BC
:100AD000A500EAD429813A814B815C8199D59B019B
:100AE000AC01DFD3A5019401DCD320E030E040E885
:100AF0005EE38ED54B015C012D813E814F8158858F
:100B000060E070E080E899E4CBD32B013C01609178
:100B10009E0070919F008091A0009091A100C4D48C
:100B200020E030E040E857E473D5A5019401B9D343
:100B300020E030E040E859E36BD59B01AC01C301F4
:100B4000B201AED320E030E543E455E461D54B017A
:100B50005C0120E030E040E05FE407D487FF85C01F
:100B6000A5019401C501B4019CD3A701960101D44C
:100B70006B017C0120E030E040E05EE349D54B01B1
:100B80005C016091B2007091B3008091B4009091CB
:100B9000B5008AD42B013C01A5019401C501B40123
:100BA00037D520E030E040E059E332D59B01AC017D
:100BB000C301B2012DD520E030E040E859E328D54B
:100BC0004B015C016091AE007091AF008091B0006C
:100BD0009091B10069D42B013C0120E030E040E865
:100BE0005EE3C701B60114D59B01AC01C301B2019C
:100BF0000FD520E030E040E059E30AD59B01AC017D
:100C0000C501B4014ED34B015C016091AA00709103
:100C1000AB008091AC009091AD0046D49B01AC013B
:100C2000C501B4013ED320E030E040E85DE3F0D4FC
:100C3000A701960136D320E030E048EC52E499D386
:100C400028960FB6F894DEBF0FBECDBFDF91CF91CF
:100C5000FF90EF90DF90CF90BF90AF909F908F90DC
:100C60007F906F905F904F900895A7019601C50106
:100C7000B4017FD39B01AC0114D37ACF60E070E064
:100C8000CB01DECF4F925F926F927F928F929F92B5
:100C9000AF92BF92CF92DF92EF92FF924B015C0135
:100CA00020E030E046E957E46091BE007091BF005B
:100CB0008091C0009091C100F3D26B017C0120E0D3
:100CC00030E0A90152D3882309F4A8C06091DE0066
:100CD0007091DF008091E0009091E100E5D320E089
:100CE00030E040E858E394D4A701960191D42B0159
:100CF0003C016091DA007091DB008091DC00909102
:100D0000DD00D2D320E030E040E852E481D49B0102
:100D1000AC01C301B201C5D29B01AC01C501B40154
:100D2000BFD24B015C016091D6007091D7008091D9
:100D3000D8009091D900B8D320E030E040E852E3E9
:100D400067D4A701960164D420E030E040E85FE377
:100D5000A8D22B013C016091E2007091E3008091E8
:100D6000E4009091E500A0D320E030E040E852E3B9
:100D70004FD4A70196014CD49B01AC01C301B20131
:100D800047D420E030E040E85FE38BD26B017C0188
:100D90006091D2007091D3008091D4009091D500E1
:100DA00083D320E030E040E857E332D49B01AC012C
:100DB000C701B6012DD49B01AC01C501B40128D4F3
:100DC0006B017C016091CE007091CF008091D000CA
:100DD0009091D10069D3A70196011AD420E030E0A8
:100DE00040E056E315D49B01AC0160E070E080E880
:100DF0009FE356D2A70196010BD46B017C0120E042
:100E000030E048EC52E400D4181664F020E030E002
:100E1000A901C701B601A9D287FF0AC0C12CD12CF4
:100E2000760106C0C12CD12C88ECE82E82E4F82E85
:100E3000C701B601FF90EF90DF90CF90BF90AF90C9
:100E40009F908F907F906F905F904F90089507D9FB
:100E50008FE097E20197F1F700C0000008954F92EC
:100E60005F926F927F928F929F92AF92BF92CF923A
:100E7000DF92EF92FF920F931F93CF93DF938C013A
:100E8000E6DF8FE39CE90197F1F700C0000047DB44
:100E900064E082EF40DB61E984EF3DDB9FE7E8E35C
:100EA000F1E09150E040F040E1F700C0000048E080
:100EB00066EB70E087EF2BDBC6EBD0E0698170E07A
:100EC00084E0660F771F8A95E1F78A8190E024E03D
:100ED000969587952A95E1F7682B792B90E080E02D
:100EE000C880D12CF12CE12C3CE0CC0CDD1CEE1C9C
:100EF000FF1C3A95D1F76C297D298E299F29D2D2E2
:100F00004B015C016E817F8176276727762790E011
:100F100080E0C8D26B017C016C8170E044E0660F18
:100F2000771F4A95E1F78D8190E054E0969587957B
:100F30005A95E1F7682B792B90E080E04B80512C9B
:100F4000712C612CECE0440C551C661C771CEA9556
:100F5000D1F76429752986299729A4D25FDC2B0152
:100F60003C016FD2F8016083062E000C770B880BD2
:100F7000990B9AD29B01AC01C301B20191D120E03F
:100F800030E048EC52E444D361D2F8016183C501FA
:100F9000B401E2DC4B015C0159D2F8016283738336
:100FA00081D29B01AC01C501B4017AD120E030E0CF
:100FB00048EC52E42DD34AD2F8016483C701B6014C
:100FC00061DE44D2F801658396D9D82F91D9C82F14
:100FD0001D2F180F99D96D2F7C2F812FDF91CF9165
:100FE0001F910F91FF90EF90DF90CF90BF90AF9047
:100FF0009F908F907F906F905F904F9008958F9209
:101000009F92AF92BF92CF92DF92EF92FF92CF93D7
:10101000379A8EE187B98FE19EE40197F1F700C01E
:101020000000C0E0C12CD12C7601812C20E3922E4F
:1010300021E1A22EB12C369A3699FECF84B125B18A
:1010400030E0322F2227032E000C440B550B282BA7
:10105000C501B401E7D0C53050F0CA01B90124D2AE
:101060009B01AC01C701B6011CD16B017C01CF5FB4
:10107000C43109F7379820E030E040E751E4C70178
:10108000B60177D1DED1CF91FF90EF90DF90CF9076
:10109000BF90AF909F908F9008951F920F920FB6C0
:1010A0000F9211248F9381E0809362008091610000
:1010B0008F5F8093610081B5806481BD8F910F90B7
:1010C0000FBE0F901F90189537981BBA18BA8FEF64
:1010D0008ABB87BB1BBA18BA85B7877E806185BF7C
:1010E00085B7806285BF889585B78F7D85BF089558
:1010F000F89484B7877F84BF81B5886181BD81B54D
:10110000816281BD81B5806481BD789408954AD99A
:101110004FD92FE788E391E0215080409040E1F7DC
:1011200000C000000895CF93DF93CDB7DEB7A1973D
:101130000FB6F894DEBF0FBECDBF85E0E3E6F0E06A
:10114000DE015C9601900D928A95E1F785E0E3E679
:10115000F0E0DE01579601900D928A95E1F781E06B
:1011600090E0C1D289A3C4DF10E080916200813099
:10117000E1F71092620090916100809160009817F1
:1011800008F44EC03CDFF62EE72EBB9AC39A2FEF31
:101190008EE994E2215080409040E1F700C00000C9
:1011A000CE0141965CDE082FC398B1DF20E140E517
:1011B000BE01645E7F4FCE01479662D960E187E051
:1011C0001DD9109261001F5F89A18983EA82FB8289
:1011D00089898C838A898D838B898E838C898F837F
:1011E0008D89888719868E898A871B861C861D862D
:1011F0001E861F87088BE2D860E1CE01019669D96F
:101200002FE788E391E0215080409040E1F700C053
:101210000000ECD8882319F060E187E0EFD8F9D816
:1012200053DFA3CF052E97FB16F400940FD057FD84
:1012300005D014D007FC02D046F408C05095409564
:10124000309521953F4F4F4F5F4F08959095809572
:10125000709561957F4F8F4F9F4F0895A1E21A2E91
:10126000AA1BBB1BFD010DC0AA1FBB1FEE1FFF1F4A
:10127000A217B307E407F50720F0A21BB30BE40B9A
:10128000F50B661F771F881F991F1A9469F76095E1
:101290007095809590959B01AC01BD01CF0108959B
:1012A0005058BB27AA270ED075C166D130F06BD13C
:1012B00020F031F49F3F11F41EF45BC10EF4E09571
:1012C000E7FB51C1E92F77D180F3BA1762077307A3
:1012D0008407950718F071F49EF58FC10EF4E09520
:1012E0000B2EBA2FA02D0B01B90190010C01CA01E0
:1012F000A0011124FF27591B99F0593F50F4503E8B
:1013000068F11A16F040A22F232F342F4427585F7C
:10131000F3CF469537952795A795F0405395C9F794
:101320007EF41F16BA0B620B730B840BBAF091504C
:10133000A1F0FF0FBB1F661F771F881FC2F70EC0EB
:10134000BA0F621F731F841F48F4879577956795BE
:10135000B795F7959E3F08F0B3CF9395880F08F0A7
:101360009927EE0F979587950895D9D008F481E0D5
:1013700008950CD00FC107D140F0FED030F021F419
:101380005F3F19F0F0C0511139C1F3C014D198F387
:101390009923C9F35523B1F3951B550BBB27AA27F6
:1013A00062177307840738F09F5F5F4F220F331F68
:1013B000441FAA1FA9F333D00E2E3AF0E0E830D034
:1013C00091505040E695001CCAF729D0FE2F27D037
:1013D000660F771F881FBB1F261737074807AB0705
:1013E000B0E809F0BB0B802DBF01FF2793585F4F7A
:1013F0002AF09E3F510568F0B6C000C15F3FECF394
:10140000983EDCF3869577956795B795F7959F5F3E
:10141000C9F7880F911D9695879597F90895E1E092
:10142000660F771F881FBB1F621773078407BA07F1
:1014300020F0621B730B840BBA0BEE1F88F7E0954C
:10144000089504D06894B111D9C00895BCD088F033
:101450009F5790F0B92F9927B751A0F0D1F0660FA0
:10146000771F881F991F1AF0BA95C9F712C0B130BB
:1014700081F0C3D0B1E00895C0C0672F782F8827CE
:10148000B85F39F0B93FCCF3869577956795B395FA
:10149000D9F73EF490958095709561957F4F8F4F69
:1014A0009F4F0895E89409C097FB3EF4909580956E
:1014B000709561957F4F8F4F9F4F9923A9F0F92F1A
:1014C00096E9BB279395F695879577956795B79598
:1014D000F111F8CFFAF4BB0F11F460FF1BC06F5F7E
:1014E0007F4F8F4F9F4F16C0882311F096E911C090
:1014F000772321F09EE8872F762F05C0662371F0B1
:1015000096E8862F70E060E02AF09A95660F771FC4
:10151000881FDAF7880F9695879597F90895990FA0
:101520000008550FAA0BE0E8FEEF16161706E807AD
:10153000F907C0F012161306E407F50798F0621BCE
:10154000730B840B950B39F40A2661F0232B242BA3
:10155000252B21F408950A2609F4A140A6958FEFC2
:10156000811D811D089597F99F6780E870E060E014
:1015700008959FEF80EC089500240A94161617062C
:1015800018060906089500240A9412161306140674
:1015900005060895092E0394000C11F4882352F0D7
:1015A000BB0F40F4BF2B11F460FF04C06F5F7F4F8F
:1015B0008F4F9F4F089557FD9058440F551F59F076
:1015C0005F3F71F04795880F97FB991F61F09F3F30
:1015D00079F087950895121613061406551FF2CF59
:1015E0004695F1DF08C0161617061806991FF1CFA9
:1015F00086957105610508940895E894BB276627D0
:101600007727CB0197F908958ADF08F48FEF0895C3
:101610000AD0C0CFB1DF28F0B6DF18F0952309F06B
:10162000A2CFA7CFEBCFC7DFA8F39923D9F35523D8
:10163000C9F3950F50E0551FAA27EE27FF27BB27B8
:1016400000240894679520F4E20FF31FB41F0A1ECC
:10165000220F331F441FAA1F6695A9F7779530F410
:10166000F30FB41F0A1E121E08F46395330F441FB4
:10167000AA1F221F769599F7879520F4B40F0A1EAA
:10168000121E631F440FAA1F221F331F8695A9F73E
:10169000862F712D602D11249F5750408AF0E1F064
:1016A00088234AF0EE0FFF1FBB1F661F771F881F9E
:1016B00091505040A9F79E3F510570F054CF9ECFF6
:1016C0005F3FECF3983EDCF3869577956795B79589
:1016D000F795E7959F5FC1F7FE2B880F911D9695B3
:1016E000879597F90895E199FECF9FBB8EBBE09A4D
:0A16F00099278DB30895F894FFCFF9
:0816FA00403E01E3F0F0F0F0C6
:00000001FF
